:020000040800F2
:1000000058040020AD010008CB0F00086B0F00085A
:10001000C90F0008B9020008A5120008000000007E
:10002000000000000000000000000000CF0F0008EA
:10003000BB02000800000000CD0F0008D10F00082F
:10004000C7010008C7010008C7010008C701000870
:10005000C7010008C7010008C7010008C701000860
:10006000C7010008C7010008C7010008C701000850
:10007000C7010008C7010008C7010008C701000840
:10008000C7010008C7010008C70100080000000000
:10009000000000000000000000000000C701000890
:1000A000C7010008C7010008C7010008C701000810
:1000B000C7010008C7010008C7010008C701000800
:1000C000C7010008C7010008C7010008C7010008F0
:1000D000C701000899120008C701000800000000CD
:1000E000C7010008C7010008C701000800000000A0
:1000F000000000000000000000000000C701000830
:1001000000000000C7010008C7010008C70100087F
:1001100000000000000000000000000000000000DF
:10012000C7010008C7010008C7010008C70100088F
:10013000C7010008000000000000000000000000EF
:10014000000000000000000000000000C7010008DF
:10015000C7010008C7010008C7010008C70100085F
:10016000C7010008C70100080000000000000000EF
:10017000000000000000000000000000000000007F
:1001800000000000C701000800000000000000009F
:10019000C7010008DFF810D000F07CF800480047E5
:1001A000E5120008AFF3008058040020064880479D
:1001B00006480047FEE7FEE7FEE7FEE7FEE7FEE74C
:1001C000FEE7FEE7FEE7FEE7551000089501000890
:1001D0002DE9F05F0546002092469B46884606467C
:1001E000814640241BE0284641464746224600F00F
:1001F00041F853465A46C01A914110D31146184649
:10020000224600F028F82D1A67EB01084F462246D7
:100210000120002100F01FF817EB00094E41201EBD
:10022000A4F10104DFDC484631462A464346BDE8D6
:10023000F09FD2B201E000F8012B491EFBD27047BB
:100240000022F6E710B513460A4604461946FFF7A2
:10025000F0FF204610BD202A04DB203A00FA02F10C
:10026000002070479140C2F1200320FA03F31943A4
:1002700090407047202A04DB203A21FA02F0002146
:10028000704721FA02F3D040C2F1200291400843A6
:1002900019467047064C074D06E0E06840F0010340
:1002A00094E8070098471034AC42F6D3FFF776FF86
:1002B0002014000840140008FEE770472DE9F041C3
:1002C0000446876D00F05AF9064694F8350000257B
:1002D000022806D08020606584F834500120BDE8F3
:1002E000F0812068016821F01601016020684169F1
:1002F00021F080014161206C08B9A06C20B1206818
:10030000016821F0080101602068016821F0010105
:1003100001600BE000F032F9801B052806D920208F
:10032000606504F8345F03206070D8E720680068D7
:10033000C007EFD194F85C103F208840B86004F803
:10034000345F012060700020C9E790F83510022961
:1003500003D08021416501207047052180F83510C8
:100360000068016821F00101016000207047000071
:1003700070B5044600F002F90546601C02D004483E
:100380000078044400F0FAF8401BA042FAD370BD94
:10039000040000202DE9F84FDFF8B4A10022012469
:1003A0000AF1040B03254FF00F090BF1040E00BFF7
:1003B0000B6804FA02F63340B34272D10F7907F0AA
:1003C0000307012F01D0022F16D187684FEA420898
:1003D00005FA08FC27EA0C07D1F80CC00CFA08FC57
:1003E0004CEA070CC0F808C04768B7430E79C6F35B
:1003F000001696403E4346600E79F643B6070DD090
:10040000C768560005FA06FC27EA0C07D1F808C0B1
:100410000CFA06FC4CEA070CC0F80CC00E7906F08A
:100420000306022E10D1D60800EB8608D8F820600B
:1004300057074FEAD76C09FA0CF7BE430F6907FA62
:100440000CF73743C8F8207006684FEA420C05FAEB
:100450000CF7BE430F7907F0030707FA0CF7374391
:1004600007604E68F6006DD53A4E376847F480470E
:100470003760366822F0030706F480460096364E51
:1004800007EB060CDCF8086897073F0F09FA07F836
:1004900026EA0806DFF8C480404503D14FF0000883
:1004A0001EE04FE0DFF8B880404502D14FF0010870
:1004B00016E0DFF8B080404502D14FF002080FE0AF
:1004C000DFF8A480404502D14FF0030808E0DFF8D0
:1004D0009C80404502D14FF0040801E04FF007082E
:1004E00008FA07F848EA0608CCF80888DAF8006045
:1004F0005746D1F804C09E435FEACC3C00D51E436A
:100500003E60DBF800605F46D1F804C09E435FEABE
:100510008C3C00D51E433E60DEF800607746D1F883
:1005200004C09E435FEACC2C00D51E433E60084FBA
:100530000C373E68D1F804C09E435FEA8C2C00D58E
:100540001E433E60521C102AFFF432AFBDE8F88F04
:10055000003C0140443802400030014000000240AD
:100560000004024000080240000C0240001002405B
:100570000AB1816170470904FBE700000148806807
:10058000704700000400002002488168027811448E
:1005900081607047040000200B4810B5016841F4E9
:1005A00000710160016841F480610160016841F4FB
:1005B00080710160032000F06FF8002000F006F861
:1005C00000F024F8002010BD003C024070B50D4D35
:1005D00004464FF47A712878B1FBF0F00A490968B3
:1005E000B1FBF0F000F00CFB48B9102C07D2002250
:1005F0002146501E00F030F800206C6070BD0120D4
:1006000070BD000004000020100000200A4808B55A
:10061000016841F480410160006800F4804000906E
:100620000548001F016841F080510160006800F03A
:100630008050009008BD000044380240002809DBCB
:1006400000F01F02012191404009800000F1E020EC
:10065000C0F8001170470000F0B40E4B1B680C4648
:10066000C3F30223C3F10705042D00D90425191D86
:10067000072901D2002300E0DB1E012606FA05F15E
:10068000491E214099409E40761E16403143F0BCE1
:1006900000F009BE0CED00E0064900F00702086812
:1006A0004FF6FF03184040EA0220034A1043086057
:1006B000704700000CED00E00000FA052DE9F0475E
:1006C0000E46050065D0DFF81481D8F80000F7B2B7
:1006D00000F00700B04207D288F80070D8F8000098
:1006E00000F00700B04254D128683D4C810712D574
:1006F000400703D5206840F4E050206028780007C8
:1007000003D5206840F4604020602068A96820F08C
:10071000F000084320602878C0072DD03049686871
:100720000839012812D0022813D0032811D00968F3
:10073000890700292DDA216821F003010143216096
:10074000FFF71CFF814641F2883A0EE009688903F1
:10075000EFE709688901ECE7FFF710FFA0EB09015B
:10076000514502D90320BDE8F0872068696800F090
:100770000C00B0EB810FEFD1D8F80010404601F02B
:100780000701B14207D90770006800F00700B042C6
:1007900001D00120E7E72878400705D52068E968FF
:1007A00020F4E050084320602878000706D5206830
:1007B000296920F4604040EAC100206000F038F868
:1007C0002168084AC1F30311515CC840064908601A
:1007D00006480068FFF7FAFE0020C4E7003C02402C
:1007E000083802400814000810000020080000200B
:1007F0000448054900680968044AC1F38221515C34
:10080000C840704710000020083802401814000843
:100810000448054900680968044AC1F34231515C43
:10082000C840704710000020083802401814000823
:10083000154810B5006810F00C02144813D0144984
:10084000042A0FD0082A0ED10F4C241F22682368D7
:1008500002F03F025B0207D52068C0F38810A0FBBE
:10086000010106E0084610BD2168C1F38811A1FB13
:1008700000010023FFF7ACFC2168C1F30141491CD2
:100880004900B0FBF1F010BD083802400024F4002C
:1008900040787D012DE9F84F04006ED02078DFF814
:1008A0004C93C007A9F104054AD009F1040001687E
:1008B000C1F38101012908D00068C0F3810002283A
:1008C0000AD1D9F80000400206D52868800337D540
:1008D00060680028E1D033E06068B0F5803F10D058
:1008E000B0F5A02F286810D020F480302860286848
:1008F00020F4802028606068A8B1FFF73FFE06461C
:100900000DE0286840F48030F4E740F4802028604F
:10091000F7E700BFFFF732FE801B642873D8286812
:100920008003F7D50CE0FFF729FE064605E000BF7F
:10093000FFF724FE801B6428F0D828688003F7D4D2
:100940002078DFF8AC8280074FF0000A3ED5A74838
:10095000001D016811F00C0F08D00068C0F3810081
:1009600002280BD1D9F80000400207D4286880077C
:1009700016D5E068012800D112E033E1E068B8B193
:100980000120C8F80000FFF7F9FD064605E000BFAA
:10099000FFF7F4FD801B0228C0D828688007F7D530
:1009A0002868216920F0F80040EAC10028600DE0C5
:1009B000C8F800A0FFF7E2FD064604E0FFF7DEFD01
:1009C000801B02281FD828688007F7D420780007EA
:1009D00022D5864F87486169703771B10121016066
:1009E000FFF7CCFD064604E0FFF7C8FD801B022898
:1009F00009D838688007F7D50EE0C0F800A0FFF7E7
:100A0000BDFD064605E082E0FFF7B8FD801B022829
:100A10007DD838688007F7D42078400768D5DFF89C
:100A2000CCB100270BF13C0BDBF80000C0000BD46D
:100A3000DBF8001041F08051CBF80010DBF800002B
:100A4000012700F0805000906B4E3068C00510D434
:100A5000306840F480703060FFF790FD009005E052
:100A6000FFF78CFD0099401A022850D83068C00565
:100A7000F6D55E4EA0686C3601280FD00528306888
:100A800010D020F001003060306820F004003060A9
:100A9000A068B8B1FFF772FD00900FE0306840F039
:100AA0000100F4E740F004003060F7E7FFF766FD6F
:100AB0000099411A41F28830814266D83068800737
:100AC000F4D50EE0FFF75AFD009007E0FFF756FD62
:100AD0000099411A41F28830814256D83068800727
:100AE000F4D42FB1DBF8001021F08051CBF80010C6
:100AF000A069C8B33D49091D0968C1F381010229F4
:100B00004AD00228504607D0C8F8600000E03CE018
:100B1000FFF734FD04463BE04746C8F86000FFF7A6
:100B20002DFD064605E000BFFFF728FD801B0228CB
:100B30002BD828688001F7D4D4E907010843A16ABB
:100B40002E4A490802EB0141626A41EA82110843D8
:100B500094F82C1040EA0161C9F8001001203866B1
:100B6000FFF70CFD044606E03EE000BFFFF706FD80
:100B7000001B022809D828688001F7D534E000BF9F
:100B8000FFF7FCFC001B022802D90320BDE8F88F08
:100B900028688001F4D427E00128F7D0D9F80000B4
:100BA000E26900F4800191421CD1226A00F03F0109
:100BB000914217D147F6C071626A0140B1EB821FC2
:100BC00010D1A26A4FF0FF3300F4403103EB520220
:100BD000B1EB024F06D194F82C1000F07060B0EB2E
:100BE000016F01D00120D1E70020CFE70438024097
:100BF00000004742800E4742007000400000FFFFA7
:100C000010B5401EB0F1807F01D3012010BD4FF020
:100C1000E02460610F21601700F045FB0020A06117
:100C200007202061002010BD70477047F8B50268AA
:100C300004461068D168536910F00F0F4FF000059B
:100C400053D003F0010601F4907737435FD0C20719
:100C500005D0CA0503D5226C42F001022264420786
:100C600005D5DA0703D0226C42F002022264820723
:100C700005D5DA0703D0226C42F004022264020791
:100C800007D501F02002324303D0226C42F0080263
:100C90002264226C002A34D0800604D5880602D54E
:100CA000204600F0FFF920684069216CC0F38010F5
:100CB000090700D430B3204600F0DCF92068416910
:100CC00049061BD5416921F040014161A06BA8B1E3
:100CD00059490165A06BFFF738FB002811D0A06BC4
:100CE000016D01B0BDE8F040084783060FD58B06C3
:100CF0000DD52046BDE8F84000F0D4B92046FFF7F6
:100D000094FFF8BD2046FFF790FF2564F8BD266BE1
:100D10002023012E53D1C60651D5CE064FD51068DB
:100D200050680090506940062BD5A16B0868406858
:100D30000004000CEAD0A68D8642E7D9E085C86998
:100D4000B0F5807F18D0D06820F48070D060206823
:100D5000416921F0010141612068416921F04001B0
:100D6000416184F83E3025632068C16821F010019C
:100D7000C160A06BFFF7A2FAA08DE18D401A81B28D
:100D800019E0A08DE18D401A81B2E08D0028BDD020
:100D90000029BBD0D06820F49070D06020684269F0
:100DA00022F00102426184F83E3025632068C26867
:100DB00022F01002C2602046FFF736FFF8BD05069C
:100DC0002BD50D0629D594F83D002128F6D1A06831
:100DD000B0F5805F01D12069B0B1206A411C216269
:100DE000216800784860E08C401E0004000CE0841C
:100DF000E4D12068C16821F08001C1602068C16829
:100E000041F04001C160F8BD206A0088C0F30800CD
:100E10005060206A801C2062E5E74006F3D5480652
:100E2000F1D5D168204621F04001D16084F83D30F1
:100E300000F09AF8F8BD00006510000870B50400D5
:100E400004D094F83D00002510B106E0012070BDEB
:100E500084F83C50204600F023F8242084F83D001C
:100E60002068C16821F40051C160204600F072F989
:100E70002068016921F4904101612068416921F0F5
:100E80002A0141612068C16841F40051C1602564B4
:100E9000202084F83D0084F83E00002070BD000052
:100EA00010B586B0044614216846FFF7C9F9184901
:100EB0002068884229D117480021026842F01002B8
:100EC0000260006800F010000590124814380268B3
:100ED00042F001020260006800F0010005904FF44A
:100EE000C06000900220CDE901010320039007209B
:100EF000049069460848FFF74DFA00221146252064
:100F0000FFF7AAFB2520FFF799FB06B010BD0000F4
:100F100000100140443802400000024090F83E308A
:100F2000202B0ED159B152B190F83C30012B08D092
:100F3000012380F83C300023036300F091B90120C5
:100F40007047022070470000054900680968884220
:100F500004D1012203490248FFF7E0BF70470000B7
:100F600014000020000000207047FEE730B587B075
:100F700014216846FFF764F911480024016841F024
:100F800080010160016801F080010591016841F074
:100F90000101016000680B4D00F001000590224640
:100FA0001E212846FFF7E4FA1E2000900120CDE91B
:100FB0000104694628460394FFF7ECF907B030BDF9
:100FC0003038024000000240FEE7FEE770477047FD
:100FD000FFF7DABA10B592B030216846FFF730F962
:100FE00014210CA8FFF72CF918480024016841F0DF
:100FF00080510160006800F0805011901448016831
:1010000021F4404141F4004101600068069400F47D
:101010004040119002200090012003901020049085
:101020006846FFF737FC08B172B6FEE70F20CDE93E
:101030000C040E940F9400210CA81094FFF73EFBB3
:10104000002801D072B6FEE712B010BD4038024051
:10105000007000400248016841F47001016070476F
:1010600088ED00E010B5806B0021C185C184FFF7D9
:10107000DCFD10BD0168CA6822F49072CA60016884
:101080004A6922F001024A61016B012904D1016819
:10109000CA6822F01002CA60202180F83E100021A8
:1010A0000163704710B5044690F83E00222801D035
:1010B000022010BDA1684FF48052914201D12069F5
:1010C00020B1A06A91421BD049B10AE02168A06A10
:1010D0004968C1F308010180A06A801C08E0216909
:1010E00071B12168496801F07F010170A06A401C5C
:1010F000A062E08D401E0004000CE08503D01CE0DF
:1011000021684968F1E72068C16821F02001C160C9
:101110002068C16821F48071C1602068416921F0B4
:1011200001014161202084F83E00206B012806D097
:101130002046FFF709FF00202063002010BD206833
:10114000C16821F01001C160A18D2046FFF76CFD40
:10115000F1E7000070B5044600680169E26821F417
:101160004051114301612169A068E2690843616946
:10117000114308432168CA6849F20C639A43024349
:10118000CA6020684169A26921F44071114341613C
:1011900031492068884202D03049884202D1FFF7A5
:1011A00037FB01E0FFF724FBE269002319216425E6
:1011B0003226B2F5004F626828D0A0FB0101930FE0
:1011C0009200FFF705F80146B0FBF5F06FF018024A
:1011D000504301EB800006EB0010B0FBF5F000F08F
:1011E000F002B1FBF5F002EB0012B1FBF5F06FF08D
:1011F0001803584301EB800006EB0010B0FBF5F03C
:1012000000F00F0021681044886070BDA0FB010150
:1012100092185B41FEF7DCFF0146B0FBF5F00201DE
:10122000B1FBF5F06FF01803584301EB800006EBBB
:10123000C000B0FBF5F000F0F80002EB4002B1FB9B
:10124000F5F0584301EB800006EBC000B0FBF5F071
:1012500000F00700D6E70000001001400014014034
:1012600081628285C28500210164222280F83E20AD
:1012700080F83C100168CA6842F48072CA60016854
:101280004A6942F001024A610068C16841F02001E8
:10129000C1600020704700000148FFF7C7BC000094
:1012A00014000020FEE70907090E002804DB00F106
:1012B000E02080F80014704700F00F0000F1E020FB
:1012C00080F8141D704702E008C8121F08C1002AE8
:1012D000FAD170477047002001E001C1121F002AB7
:1012E000FBD17047FFF758F9FFF774FEFFF73EFE9A
:1012F00042484149042201604FF4165141600021E7
:101300008160C160C0E904128161C161FFF796FD8F
:1013100008B172B6FEE7012239493848FFF7FEFDF1
:10132000374C384D4FF47A775326207846281CD016
:10133000422826D04C2835D0522844D05328F4D106
:10134000002202212846FFF713F900220421284633
:10135000FFF70EF9002208212846FFF709F90022BD
:1013600010212846FFF704F9DFE701220221284671
:10137000FFF7FEF8002204212846FFF7F9F80122C2
:10138000E9E7002202212846FFF7F2F801220421B2
:101390002846FFF7EDF8002208212846FFF7E8F875
:1013A0000122DDE7012202212846FFF7E1F80022B1
:1013B00004212846FFF7DCF8002208212846FFF721
:1013C000D7F801220FE0002202212846FFF7D0F8CB
:1013D000012204212846FFF7CBF8012208212846E4
:1013E000FFF7C6F8002210212846FFF7C1F838465B
:1013F000FEF7BEFF267098E70010014014000020A1
:10140000000000200000024000000000000000007A
:10141000010203040607080900000000010203049A
:10142000401400080000002014000000C61200084C
:10143000541400081400002044040000D6120008D0
:10144000000000000100000010000000000000008B
:041450000024F40080
:040000050800019559
:00000001FF
